:020000040001F9
:10CB1A00ECF1ECF2ECF3ECF5ECF6ECF7ECFCE6F10C
:10CB2A00AA0AE6F25405E6F3AA00D7400000B83193
:10CB3A00E6F35500D7400000B83248B13D16E6F397
:10CB4A008000D7400000B831E6F3AA00D7400000C1
:10CB5A00B831E6F35500D7400000B832E6F33000AA
:10CB6A00DC48B839E6FAFFFF0D07E6F3A000D74024
:10CB7A000000B831DC48B8A9E6F7FFFFE6FC00017F
:10CB8A00A758A7A7DC48A859F065506A66F680003E
:10CB9A002D1066F520003D0728713DF228C13DF0B1
:10CBAA00B748B7B70DFDDC48A859505A66F580005A
:10CBBA003D06DC48A859405A3D02E0140D01E00444
:10CBCA00E6F3F000D7400000B831FCFCFCF7FCF6B5
:0ACBDA00FCF5FCF3FCF2FCF1DB00BB
:10C742007EB7E00DBB6148212D1A48222D214825D4
:10C752002D3446F208002D4148263D02B748B7B7AE
:10C76200E6F3FF0048233D02E6F3570048273D0465
:10C77200E6F25A00BB63F03DF023BB600DE3BB540D
:10C78200DC48A8A9F02A7C82BB59F02ABB570DDAF3
:10C79200BB4BBB44F00ABB42F01ABB40F07ABB3E33
:10C7A200F0EAF0A0BB6B0892F0A1BB680892F0A778
:10C7B200BB650892F0AEBB620DC5BB36BB54E6F357
:10C7C2008000D7400000B83BBB4EE6F33000DC48A7
:10C7D200B839E6FAFFFFBB5A0DB5BB16F082E00985
:10C7E200E004E005A758A7A7DC48A8A9004A00541E
:10C7F200089246F900408DF6E6F25A00BB1FF0643B
:10C80200BB2CF065BB2A0D9EA758A7A79AB7FC7050
:10C81200F2F2B2FE66F2FF007EB7CB00BBF5F0A2E9
:10C822005C8ABBF270A2CB00BBEFF082BBF7F09A3E
:10C832000EF9E6FBAA0AE6FC5405CB0066F2FF00FD
:10C84200F6F2B0FEE6F3FFFFA758A7A78AB7037078
:10C8520028313DFACB007EB7CB00F0267C82BBEEBE
:10C86200F026BBECCB00E6F3AA00D7400000B83BB1
:10C87200E6F35500D7400000B83CCB00BBF4E6F32A
:10C88200A000D7400000B83BDC48B8A9E6F3FFFFA0
:10C89200E6F60001A758A7A7DC48A849F054505A69
:10C8A20066F580002D0E66F420003D0528313DF22C
:10C8B20028613DF00D0ADC48A849504A66F4800020
:10C8C2003D04DC48A849404A2D0446FDFF009D0175
:0EC8D20008D1E6F3F000D7400000B83BCB00E1
:020000040000FA
:100F7800E60800FCCC00F2FFAEFFE6D70100A75858
:100F8800A7A7E6A800410A863F2E1A8600D21A892A
:100F980080FB0A896F00E6F100C0F6F1E0F1D1901C
:100FA800E6E80005E6E80004D190E6E80001E6EA94
:100FB8000060E60C0338E68A2E04E60D0028E68B6E
:100FC8006D04E60E0780E68CAE04E60A0CF8E6002F
:100FD8000000E6010100E602E000E60800FCE6F099
:100FE8000088E6F90100E6F80800F01870192D2FBE
:100FF800A758A7A7E005DC0998282D29F032DC09B5
:101008009848AAF21DE0AAF20EF0F0347C330EF3F1
:1010180006F300FDE0154C549150685BB853084145
:1010280028213DF30DE5DC099838A758A7A7DC442B
:10103800B9A30831184076F300C028217DF60DD8F1
:10104800A758A7A7B9A4084128217DFA0DD1E6F928
:101058000100E6F80000A758A7A7E6030300DC098B
:10106800A8282D3F08821890AAF22CF0F04266F2C8
:10107800FF3F3D05E004DC09A82808821890DC0938
:10108800A838088218908AF406E0F6F306FEDC0910
:10109800A83808821890DC09A9A808811890B9A373
:1010A80008318AF406E08AF304E00603010076F3C7
:1010B80000C0A758A7A728213DEE9AF8CC000881C0
:1010C80018900DC9C0435C1376F300FDE014F1A538
:1010D8004C458AF203709140684B0D01784BB84338
:1010E8000DBAD740E000F6FF4608E6FE5352D74057
:0A10F800E000F6FE4408FA0132CDD4
:020000040001F9
:04CD8800EA0094CD5C
:04CD8C00EA0094CD58
:04CD9000EA0094CD54
:10CD9400BE88E6A90000E6AA0000E6910000E6923B
:10CDA4000000E6930000E69400000FE01FE04FE867
:10CDB4005FE86FE87FEA1FEA3FEA2FE64FE60DFFE0
:10A8C200ECFDECFEECFFF0DCF06B88A0F0E8F0F9B8
:04A8D20006F0F2FF9B
:10A8D600F04066F4FF3FF2F504FE88508840E00C35
:10A8E600F0B6E08AF08E06F84007F09FDA010E9186
:10A8F6000804C4400600E108E48002000D05F48067
:10A9060002000981E4800200F460020049649D0AA5
:10A91600C066F04E0046F05FDC45F4845107C08502
:10A92600405D8DEDE6F40001E0058850F0C4E00AD4
:10A93600E00BC062F04E0042F05FDC45F4245007A5
:10A94600C026E007F04DE00520463057F0645C85F0
:10A956005C847C867056C029F06E0062F07FDC470E
:10A96600F4C65107C0C62069E007DA018AC9F08437
:10A97600F095DA01C88F0802C4400800D4A006008A
:10A98600F4E00200C0EC5C3CA920C02BF02B002CAC
:10A99600F04E0042F05FDC45F4845A07C089F04E61
:10A9A6000042F05FDC45F4845907C088DA01A290C2
:10A9B600C4400A00D4A00600F4E00200C0EC5C3CEF
:10A9C600A920C02BF02B002CF04E0042F05FDC4596
:10A9D600F4846207C089F04E0042F05FDC45F484DF
:10A9E6006107C088DA01A290C4400C00E044004030
:10A9F60066F4FF3FF2F504FE88508840E00CD4B0C0
:10AA06001200E08AF08E06F88907F09FDA010E91AF
:10AA16000804F0A4F4E00400C0E8F02E0028F03F9B
:10AA2600DC43F4829A07C089DC43F4829907C08824
:10AA3600DA01A290F0D4D4A00800D4900C00D480FF
:10AA46000A00DA01A29026F46400F054BCF5F06D19
:10AA5600E007DA01E0C8E6F66400E007DA01F8C8C4
:06AA660006F46400185024
:0CAA6C0006F01000FCFFFCFEFCFDDB000F
:10AA7800ECFDECFEECFF88C0F0DBF01AF0E8F0F932
:04AA880006F0FAFFDB
:10AA8C00E6F45622E6F5E000B840C4500200D74088
:10AA9C00E000F2F47421C4400400D740E000F3F865
:10AAAC00762149813D0CD4900200A880DC49A9880C
:10AABC0049823D0548102D0346F13200FD20E10C82
:10AACC00D4500200A840DC45E4C43500E6F664002E
:10AADC00D4500200A840DC45C4643800E6F664009B
:10AAEC00D4500200A840DC45C4643600E10CD450BC
:10AAFC000200A840DC45E4C44C00EA0016ADDC4979
:10AB0C00F48835003D15D4600400DC49C4683A0073
:10AB1C00E11CD4500200A840DC45E4C43500E0063A
:10AB2C00D4500200A840DC45C4645000EA0016ADC5
:10AB3C00E6F41027E0058850F0C4E6FAF0D8E6FBFE
:10AB4C00FFFFDC49D4483A00F064E007D44006002B
:10AB5C00E00520463057E6F66400E007DA01E0C86D
:10AB6C00F061E007DA018AC9F084F095DA01C88F48
:10AB7C000802F064D4500200A840DC45C4645000C4
:10AB8C00D4500800D4400600DC45F4845607C08637
:10AB9C00D4B00200A8A0DC4BD44A50004046BD59AA
:10ABAC00DC4BF48A4C003D0CE11CDC4BE4CA4C0041
:10ABBC00D4500200A840DC55C4E44400C4F4460060
:10ABCC00D4500800D4400600DC45F4845807C085F6
:10ABDC002851E0A41B54F2FB0CFEF2FA0EFED4300A
:10ABEC000200A820DC53D4824400D4924600F06EBC
:10ABFC002068F07F3079206A307B8D32DC43D45270
:10AC0C003A00E0A4F6F50EFE5B44F2FC0EFED450C6
:10AC1C000200A840DC45D4B45000F0ADD49008003C
:10AC2C00D4800600DA01C2A8F074D4900200A88087
:10AC3C00DC49D458360040579D13DC49C4783800A1
:10AC4C00D4500200A840DC55C4E44000C4F44200D7
:10AC5C000D07E10CD4500200A840DC45E4C44C00C4
:10AC6C00D4500200A840DC55D4644000D474420097
:10AC7C0020E630F7D4900800D480060006F80A09C4
:10AC8C00DA01528FF064E007F04EF05F2046305747
:10AC9C008D03E6F664000D2BD4900800D4800600DA
:10ACAC0006F80A09DA01528FF064E007206E307F53
:10ACBC00D4500200A840DC45D444380026F464008B
:10ACCC00E005DA01E0C8F0E4F0F5D4900800D48097
:10ACDC00060006F80A09DA01528FF064E007F04E1C
:10ACEC00F05FDA01F8C806F464001850F064D45030
:10ACFC000200A840DC45C4643600D4600400D45083
:0AAD0C000200A840DC45C4643A00D0
:0CAD160006F00800FCFFFCFEFCFDDB006A
:10A43400E6F45622E6F5E000F0A4F0B5E6F4742163
:10A44400E6F5E000F024F035DC43F4820A004981AB
:10A454002D06DC5BF4CA3200E4CA0800DB00DC49E8
:10A46400F488E205D086DC43D45208004056CD057A
:10A47400E11CDC4BE4CA0800DB00DC49F488E3059A
:0EA48400D0864056AD04E10CDC4BE4CA080063
:02A49200DB00ED
:10A49400ECFEECFFF0EAF0FB8890888006F0FCFF0D
:10A4A400E6F45622E6F5E000B840C4500200F08E0F
:10A4B40006F81009F09FDA01528FF084D4B002003C
:10A4C400A8A0DC4BF48A08003D0DE10CDC4BE4CA87
:10A4D4000900E10CD4500200A840DC45E4C40400A7
:10A4E400EA0002A6DC4BF48A0400EA3002A6D74054
:10A4F400E000F3F87E2149813D1EDC4BF48A3200F2
:10A504002D1AD740E000F3F81D263D15DC4BA98A2F
:10A5140049823D11D740E000F3F8BC2249823D0B4B
:10A52400DC4FF48EC0082D07DC4BF4AA150049A3B8
:10A534002D0E49A22D0CE11CDC4BE4CA0400E10CF5
:10A54400D4500200A840DC45E4C409000D58DC4B9B
:10A55400F48A09003D18E11CDC4BE4CA0900D4600C
:10A564000400D4700600D4500200A840DC55C46432
:10A574000E00C4741000D4B00200A8A0DC5BD46A3E
:10A584003E00C46A0A00D4700200A860DC47D456B6
:10A594000A004058FD03DC47C4860A00D740E000A7
:10A5A400F3F8C2223D0CD4500200A840DC45D45438
:10A5B4000A00D740E000F2F4C62240459D12D45070
:10A5C4000200A840DC55D4640E00D4741000D440BA
:10A5D4000400D45006002046305726F4F4013850C5
:10A5E4008D0EE11CD4500200A840DC45E4C40400F4
:0EA5F400E10CD4500200A840DC45E4C409008C
:0AA6020006F00800FCFFFCFEDB0080
:10A60C00ECFDECFEECFF88C0F0EAF0FB8890888053
:04A61C0006F0F8FF4D
:10A62000E6F45622E6F5E000B840C4500200E6F435
:10A630007421E6F5E000C4400400C4500600E00DBB
:10A64000D4B00E00D4A00C00D4800800D4900A002E
:10A65000DA0194A4D4B00200A8A0DC4BF48A320042
:10A660002D2BD740E000F3F81D263D26D740E00013
:10A67000F3F8A8202D21D740E000F3F81C262D1C6C
:10A68000DC5BD44A2400D45A2600D4600800D4707D
:10A690000A002046305728403850AD05DC4FF48E74
:10A6A0001A0049823D09D740E000F2F4062266F420
:10A6B00020013D02E0140D01E004F1C8DC4BE4CAC6
:10A6C0000500E10CD4500200A840DC45E4C40700BA
:10A6D000D4700E00D4600C00DC47F486D4059AF4E4
:10A6E0005040D4500200A840DC45A98449823D492D
:10A6F000D4900600D4800400DC49F4880600498127
:10A700003D40DC49F488020049813D3BDC49A848D2
:10A7100046F46400BD3606F60E09F097F086DA01BD
:10A72000528FD4900600D4800400DC49D458040031
:10A7300040549D27D740E000F2F406223D22D74046
:10A74000E000F2F418223D1DE6F440048840DC49A4
:10A75000A858E0A4F6F50EFE4B44F2FC0EFEDC4FCA
:10A76000D4BE1400E6FA0003D4901000D4800E008A
:10A77000DA01D2930802D4700200A860DC47E486B4
:10A780000700D4700600D4600400DC47F4860A0099
:10A7900049813D13E00CDC47D4B60800E6FAF00529
:10A7A000D4900E00D4800C00DA017093F064E6F5CA
:10A7B0006400F0452046F1C80D02E7FC6400D45067
:10A7C0000200A840DC45E4C40600D4900E00D4800A
:10A7D0000C00DC49F4C800062D1ADC49F48816097F
:10A7E0009AF41500D740E000F3F81E262D10D7404C
:10A7F000E000F3F8A8202D0BD740E000F3F81C266A
:10A800002D06D740E000F3F81D263D0178D1D45045
:10A810000200A840DC45A98449823D1CD4500600B2
:10A82000D4400400DC45F484120049813D13D74034
:10A83000E000F3F81D263D0E49C03D06DC49F488D2
:10A8400016099AF4010078D1DC49F48816099AF4C3
:10A85000011078D2DA013C7749803D0FE10CD450E9
:10A860000200A840DC45E4C40500E10CD45002001D
:10A87000A840DC45E4C40700E00DD740E000C2F486
:10A88000FE258840F04DC08CD4700400D4600200D6
:10A89000DC47F4860600C08BDC47F4860700C08ADC
:10A8A000DC47F4860400C089DC47F4860500C088D4
:06A8B000DA010E2008028F
:0CA8B60006F00E00FCFFFCFEFCFDDB00C9
:020000040000FA
:08400A00FF8CDC64000046009D
:100EF800600480045005B405D405D505E405E5056E
:100F08000006030605060706A107AF07B007B407E2
:100F18000009000CC8AF3075204EB0361027581B9A
:100F28008813AC0DC40908071405B603BC020802EF
:100F380086012201030405060708090A0B0C0D1B8C
:100F4800272D3F4043451A4B4A4D50565B61656813
:10630A00D740E000C2F5A620E6F4000C0B54F2F6E2
:0E631A000EFEE6F4A608E6F5E0000046DB0005
:10632800E6FB0E18E00AE6F8A608E6F9E000DA004F
:04633800DCDFDB00CB
:08633C00DC49B8A8E108DB0010
:10634400ECFDECFEECFF88B088A0F0E8F0F906F074
:02635400F6FF52
:10635600DC4FF48E000947F84C003D0EDC4FF48EFE
:10636600010947F852003D08F08E06F80209F09F31
:10637600DA01528F48442D0AE6FA0009D4900C003F
:10638600D4800A00DA003C63EA000876E6F40004EA
:10639600C4400600EA00B464E004B8400D7DA8409D
:1063A6005C14D45006000045F08E0084F09FDA019C
:1063B600528FC4400200D440060046F460043D34C7
:1063C600D4D00200C4D0080046FDD8FFCD05D44085
:1063D600080046F49600BD0DA8A05C1AD44006003D
:1063E60000A4D4900C00D4800A00DA003C63EA00D2
:1063F6000876A8402D4EA8405C14D45006000045EF
:10640600F08E0084F09F2882DA01528FD450080063
:106416004045CD3FD4A00600D4900C00D4800A009D
:10642600DA003C63EA000876D440060046F400042D
:106436003D03E6F4E02E0D0AD440060046F420049F
:106446003D03E6F458020D02E6F46400C44004007D
:10645600D4500400D44002004045ED11A8402D1947
:10646600A8405C14D45006000045F08E0084F09FCE
:106476002882DA01528FD450020040458D0AD4A0FA
:106486000600D4900C00D4800A00DA003C63EA00CF
:106496000876A8400841B840A84046F41000EA80B3
:1064A600A463D440060006F42000C4400600D4408D
:1064B600060046F46004EAF09E63E004B8400D3D31
:1064C600A870F02E0027F03FDC43F482000147F865
:1064D6008C00FD0BF0A706FA0001D4900C00D480C6
:1064E6000A00DA003C63EA000876DC43F422000284
:1064F60047F246008D0347F2DC00FD0BF0A706FAD3
:106506000002D4900C00D4800A00DA003C63EA0052
:106516000876DC43F482000347F86400FD0BF0A71D
:1065260006FA0003D4900C00D4800A00DA003C631B
:10653600EA000876A8400841B840A84046F40001A1
:106546008DBFE004B840EA009C66A8405C14F08E5B
:106556000084F09F06F89004DA01528F46F4E803AF
:10656600ED22A860F04E0046F05FDC45F484B004EE
:1065760047F864008D18A8405C14F08E0084F09FE4
:1065860006F8D004DA01528F46F4F4018D0CA840C7
:106596005C14F08E0084F09F06F8D004DA01528F66
:1065A60046F4C409FD0AE6FA9004D4900C00D4809F
:1065B6000A00DA003C63EA000876F08E06F8100955
:1065C600F09FDA01528FA850F06E0065F07FDC472D
:1065D600F4A6F004C0A54054ED24F08E06F8100988
:1065E600F09FDA01528FA850F06E0065F07FDC470D
:1065F600F4A60005C0A54054ED14A860F04E004670
:10660600F05FDC45F484100547F83C00ED0AA8600D
:10661600F04E0046F05FDC45F484F00547F8640070
:10662600FD0AE6FAF004D4900C00D4800A00DA00E1
:106636003C63EA000876A8405C14F08E0084F09F64
:1066460006F89405DA01528F46F45802ED17A84071
:106656002D1FA8405C14F08E0084F09F06F892056A
:10666600DA01528FF0D4A8405C14F08E0084F09FBB
:1066760006F89405DA01528F404D9D0AE6FA940514
:10668600D4900C00D4800A00DA003C63EA00087655
:10669600A8400841B840A84046F41000EA8050657A
:1066A600E004B840EA004A68A8405C14F08E008412
:1066B600F09F06F83005DA01528FC4400200A84068
:1066C6005C14F08E0084F09F06F84005DA01528FC4
:1066D600C4400400D440020046F4F4018D0AD440BC
:1066E600020046F47017ED05D440040046F4881302
:1066F600FD0AE6FA3005D4900C00D4800A00DA00D0
:106706003C63EA000876A8405C14F08E0084F09F93
:0467160006F810066B
:10671A00DA01528FC4400800D440080046F448F415
:10672A00CD14D440080046F4B80BAD0FA8402D177D
:10673A00A8405C14F08E0084F09F06F80E06DA0179
:10674A00528FD45008004045CD0AE6FA1006D4907C
:10675A000C00D4800A00DA003C63EA000876A860DC
:10676A00F04E0046F05FDC45F484200647F85000FE
:10677A00FD0AE6FA2006D4900C00D4800A00DA005A
:10678A003C63EA000876A8405C14F08E0084F09F0F
:10679A0006F84007DA01528F46F41027ED17A84091
:1067AA002D1FA8405C14F08E0084F09F06F83E0767
:1067BA00DA01528FF0D4A8405C14F08E0084F09F66
:1067CA0006F84007DA01528F404DED0AE6FA400713
:1067DA00D4900C00D4800A00DA003C63EA00087600
:1067EA00A8405C14F08E0084F09F06F88907DA014D
:1067FA00528F46F4E02EED17A8402D1FA8405C14D6
:10680A00F08E0084F09F06F88707DA01528FF0D4E1
:10681A00A8405C14F08E0084F09F06F88907DA011C
:10682A00528F404DED0AE6FA8907D4900C00D480C5
:10683A000A00DA003C63EA000876A8400841B8403A
:10684A00A84046F40800EA80AE66E6F45005C44063
:10685A0006000D57D4400600F08E0084F09FDA013E
:10686A00528F48402D0AD4400600F08E0084F09FD3
:10687A00DA01528F46F4204EFD0AD4A00600D490C5
:10688A000C00D4800A00DA003C63EA000876E004CF
:10689A00B8400D2DA8405C14D45006000045F08E77
:1068AA000084F09F0882DA01528FF0D4C4D002002B
:1068BA0048D02D10A8402D18A8405C14D4500600CA
:1068CA000045F08E0084F09FDA01528FD450020006
:1068DA004045ED0AD4A00600D4900C00D4800A00EA
:1068EA00DA003C63EA000876A8400841B840A840AC
:1068FA0046F410008DCFD440060006F42200C440AE
:10690A000600D440060046F47205FDA4E004B8402F
:10691A000D2EA8B0F02E002BF03FDC43F48228069F
:10692A0047F8F000FD0AE6FA2806D4900C00D48055
:10693A000A00DA003C63EA000876DC43F4C2500736
:10694A0047FC6400ED0748B02D0FDC43F4E24F0723
:10695A0041CEED0AE6FA5007D4900C00D4800A0022
:10696A00DA003C63EA000876A8400841B840A8402B
:10697A0048468DCFE004B8400D18A870F04E004785
:10698A00F05FDC45F484590747F864009D0BF0A7D3
:10699A0006FA5907D4900C00D4800A00DA003C6346
:1069AA00EA000876A8400841B840A84046F43000FA
:1069BA008DE4DC4FF48ED40567F8C8003D0EDC4F39
:1069CA00F48ED8054982ED09DC4FF48EE4053D05C5
:1069DA00DC4FF48E00064981FD0AE6FAD405D4900C
:1069EA000C00D4800A00DA003C63EA000876DC4F27
:1069FA00F4EEE20547FE4600CD0847FE7800AD05F5
:106A0A00DC4FF48EE305418ECD0AE6FAE205D49016
:106A1A000C00D4800A00DA003C63EA000876F08EA3
:106A2A0006F8DB05F09FDA01528FC4400200F08EAF
:106A3A0006F8DD05F09FDA01528FC4400400D44005
:106A4A00020046F4DC058D1B46F41027ED18D460CD
:106A5A00040046F6E8038D1340649D11F08E06F893
:106A6A00DF05F09FDA01528F46F4204EED08F08ED2
:106A7A0006F8DF05F09FDA01528F48403D0AE6FA30
:106A8A00DB05D4900C00D4800A00DA003C63EA00EB
:106A9A000876F08E06F8B207F09FDA01528FF0D42A
:106AAA00F08E06F8B007F09FDA01528F404D9D1A1A
:106ABA00F08E06F8B207F09FDA01528F46F4FF0310
:106ACA00ED11F08E06F8B007F09FDA01528FF0D47C
:026ADA00F08E3C
:106ADC0006F8B207F09FDA01528F204D46F464009D
:106AEC009D0AE6FAB007D4900C00D4800A00DA00B4
:106AFC003C63EA000876DC4FF4AECF0847FA0A0094
:106B0C008D1447FA5F00ED11DC4FF48ED0084981EB
:106B1C00ED0CDC4FF48EE60547F81400ED06DC4F67
:106B2C00F48EEC0547F86400FD0AE6FACF08D49021
:106B3C000C00D4800A00DA003C63EA000876DC4FD3
:106B4C00F4AE310747FA80008D1047FAC000ED0D06
:106B5C00DC4FF4AE320747FA8000ED0747FA4000ED
:106B6C008D04DC4FF48E30073D0AE6FA3007D490E2
:106B7C000C00D4800A00DA003C63EA000876DC5F83
:106B8C00F4AEC408F48EC308418A9D1147FAC800BC
:106B9C00ED0EDC4FF4AEC2082D0A47FA1000ED07DB
:106BAC00DC5FF4CEC908F48EC808418CFD0AE6FA05
:106BBC00C308D4900C00D4800A00DA003C63EA00CD
:106BCC000876DC4FF4AE010647FA32008D08DC4F34
:106BDC00F4CE020647FCFA00ED0241AC8D0AE6FA4F
:106BEC000106D4900C00D4800A00DA003C63EA0061
:106BFC000876F08E06F83006F09FDA01528F46F4D4
:106C0C001027ED11F08E06F83206F09FDA01528F44
:106C1C0046F41027ED08F08E06F83406F09FDA01E2
:106C2C00528F48402D0AE6FA3006D4900C00D480DE
:106C3C000A00DA003C63EA000876F08E06F80609D2
:106C4C00F09FDA01528F46F464008D18F08E06F82E
:106C5C000609F09FDA01528FF0D4F08E06F8040981
:106C6C00F09FDA01528F404DFD09F08E06F80409B1
:106C7C00F09FDA01528F46F4D007FD0AE6FA0409B8
:106C8C00D4900C00D4800A00DA003C63EA00087649
:106C9C00F08E06F80809F09FDA01528F46F4640072
:106CAC008D09F08E06F80809F09FDA01528F46F430
:106CBC008813FD0AE6FA0809D4900C00D4800A0067
:106CCC00DA003C63EA000876F08E06F80A09F09FB9
:106CDC00DA01528F46F40A008D12F08E06F80A097A
:106CEC00F09FDA01528F46F48813ED09F08E06F806
:106CFC000C09F09FDA01528F46F4D007FD0AE6FA30
:106D0C000A09D4900C00D4800A00DA003C63EA0033
:106D1C000876F08E06F80E09F09FDA01528F46F4D1
:106D2C0064008D1AF08E06F80E09F09FDA01528F6E
:106D3C0046F45802ED11F08E06F81009F09FDA01B6
:106D4C00528F48402D09F08E06F81009F09FDA0199
:106D5C00528F46F4DC00FD0AE6FA0E09D4900C00C2
:106D6C00D4800A00DA003C63EA000876F08E06F85C
:106D7C001209F09FDA01528F46F446008D1AF08EFC
:106D8C0006F81209F09FDA01528F46F4DC00ED117F
:106D9C00F08E06F81409F09FDA01528F48402D0945
:106DAC00F08E06F81409F09FDA01528F46F4640055
:106DBC00FD0AE6FA1209D4900C00D4800A00DA001D
:106DCC003C63EA000876DC4FF48E160967F8FC0089
:106DDC003D23F08E06F80506F09FDA01528F46F43B
:106DEC000F0EED1AF08E06F81809F09FDA01528F8B
:106DFC0046F45406ED11F08E06F81809F09FDA01EE
:106E0C00528FE6F53C00F6F40EFE5B55F2F40CFEE8
:106E1C00F2F60EFE48402D0AE6FA1809D4900C0042
:106E2C00D4800A00DA003C63EA000876DC4FF48E6A
:106E3C003A094981FD0AE6FA3A09D4900C00D4804B
:106E4C000A00DA003C63EA000876F08E06F81A09AC
:066E5C00F09FDA01528FE5
:106E620046F49CFFCD1BF08E06F81A09F09FDA015A
:106E7200528F46F4C800AD12F08E06F81C09F09F3E
:106E8200DA01528F46F4B80B8D09F08E06F81C0910
:106E9200F09FDA01528F46F41027FD0AE6FA1C0928
:106EA200D4900C00D4800A00DA003C63EA00087631
:106EB200F08E06F81E09F09FDA01528F46F488130D
:106EC2008D2DF08E06F81E09F09FDA01528F46F4DE
:106ED200E02EED24F08E06F82009F09FDA01528FA1
:106EE20046F414008D1BF08E06F82009F09FDA019B
:106EF200528F46F46400ED12F08E06F82209F09FDC
:106F0200DA01528F46F414008D09F08E06F8220938
:106F1200F09FDA01528F46F43200FD0AE6FA1E09AA
:106F2200D4900C00D4800A00DA003C63EA000876B0
:106F3200DC4FF48EB70747F86400ED19F08E06F8BF
:106F4200DB05F09FDA01528FF0D4F08E06F8B50718
:106F5200F09FDA01528F404D9D0ADC4FF4CEB40708
:106F62009AF60F70F1AC67FA4000C0A43D0AE6FA47
:106F7200B407D4900C00D4800A00DA003C63EA0023
:106F820008769AF64360DC4FF48ED4056984C08497
:106F92002D33F08E06F83009F09FDA01528F484007
:106FA2002D2BF08E06F83609F09FDA01528F46F447
:106FB20064008D22F08E06F83609F09FDA01528FB6
:106FC20046F4B80BED19DC4FF4AE380947FA3C0031
:106FD2008D1347FA6E00ED10DC4FF48E390947F835
:106FE2005000ED0ADC4FF48EB80747F88C00ED0430
:106FF200DC4FF48EB9073D0AE6FA3609D4900C004C
:10700200D4800A00DA003C63EA000876F08E06F8C3
:10701200BC07F09FDA01528FF0D4F08E06F8BA075F
:10702200F09FDA01528F404DED15F08E06F8BC0745
:10703200F09FDA01528F46F4E02EED0CDC4FF48E15
:10704200BF0747F86400ED06DC4FF48EC50847F829
:107052006400FD0AE6FABA07D4900C00D4800A0054
:10706200DA003C63EA000876DC4FF48ED4059AF429
:107072002620DC4FF48EAF072D18F08E06F8E705B8
:10708200F09FDA01528F46F4DC058D0FF08E06F880
:10709200DB05F09FDA01528FF0D4F08E06F8E70597
:1070A200F09FDA01528F404DFD0AE6FAE705D490CF
:1070B2000C00D4800A00DA003C63EA000876F08E05
:1070C20006F8E905F09FDA01528F46F41027ED0B1E
:1070D200DC4FF4AE58072D0747FA3200ED04DC4FBF
:1070E200F48E57072D0AE6FAE905D4900C00D480F5
:1070F2000A00DA003C63EA000876DC4FF48ED90518
:1071020049853D05DC4FF48EDA0549862D0AE6FAFB
:10711200D905D4900C00D4800A00DA003C63EA005E
:107122000876F08E06F82409F09FDA01528F46F4B1
:1071320014008D09F08E06F82409F09FDA01528FAF
:1071420046F4E803FD0AE6FA2409D4900C00D48040
:107152000A00DA003C63EA000876F08E06F83C0981
:10716200F09FDA01528FF054C450020048502D179C
:10717200F08E06F81009F09FDA01528FD450020007
:107182004045ED0346F52003FD0AE6FA3C09D4909A
:107192000C00D4800A00DA003C63EA000876F08E24
:1071A20006F81C09F09FDA01528FF064E007D44020
:1071B20002002D03D45002000D02E6F5FA00E0C4ED
:1071C2001B54F2F50CFEF2F40EFE20463057FD0A77
:1071D200E6FA3C09D4900C00D4800A00DA003C6341
:1071E200EA000876DC4FF4AE260949A1ED04DC4F33
:1071F200F48E27092D0AE6FA2609D4900C00D480D1
:0A7202000A00DA003C63EA00087697
:10720C00DC4FF48E00062D10DC4FF48E16096981CC
:10721C00C0843D0AE6FA1609D4900C00D4800A000A
:10722C00DA003C63EA00087649A02D4FF08E06F890
:10723C002809F09FDA01528F46F410278D3CF08E0E
:10724C0006F82809F09FDA01528F46F460EAED3314
:10725C00F08E06F82A09F09FDA01528F46F4F401F9
:10726C008D2AF08E06F82A09F09FDA01528F46F427
:10727C001027ED21F08E06F82C09F09FDA01528FC1
:10728C0046F40A008D18F08E06F82E09F09FDA01EC
:10729C00528F46F47E13ED0FF08E06F82E09F09FF8
:1072AC00DA01528FF0D4F08E06F82C09F09FDA0137
:1072BC00528F404D8D0AE6FA2809D4900C00D480E8
:1072CC000A00DA003C63EA000876F08E06F8300912
:1072DC00F09FDA01528F46F43075ED37F08E06F8D8
:1072EC003009F09FDA01528F48402D09F08E06F8D4
:1072FC003009F09FDA01528F46F4E8038D26DC4FFB
:10730C00F48E340947F86400ED20F08E06F832094B
:10731C00F09FDA01528F48402D22F08E06F8320988
:10732C00F09FDA01528F46F4E8038D0FF08E06F8C9
:10733C00E705F09FDA01528FF0D4F08E06F832098F
:10734C00F09FDA01528F404D8D0AE6FA3009D49045
:10735C000C00D4800A00DA003C63EA000876DC4FAB
:10736C00F48E4D0967F8F8003D7ADC4FF48E4E0927
:10737C0047F86400ED74DC4FF48E4F0947F8640055
:10738C00ED6EF08E06F85009F09FDA01528F4840EE
:10739C002D12F08E06F85009F09FDA01528F46F448
:1073AC00E8038D5DF08E06F85009F09FDA01528FDC
:1073BC0046F460EAED54F08E06F85209F09FDA01BB
:1073CC00528F48402D12F08E06F85209F09FDA01C8
:1073DC00528F46F4E8038D43F08E06F85209F09F65
:1073EC00DA01528F46F43075ED3AF08E06F85409F6
:1073FC00F09FDA01528F48402D12F08E06F8540996
:10740C00F09FDA01528F46F464008D29F08E06F855
:10741C005409F09FDA01528F46F41027ED20DC4F0F
:10742C00F48E560947F86400ED1ADC4FF48E5709B8
:10743C0047F86400ED14F08E06F85809F09FDA0155
:10744C00528F46F41027ED0BDC4FF48E5A0947F897
:10745C006400ED05DC4FF48E62094981FD0AE6FA01
:10746C004009D4900C00D4800A00DA003C63EA0096
:10747C000876E004B8400D18A870F04E0047F05F95
:10748C00DC45F484800967F8F0002D0BF0A706FAB0
:10749C008009D4900C00D4800A00DA003C63EA0026
:1074AC000876A8400841B840A84046F46B008DE42B
:1074BC00F08E06F85C09F09FDA01528F48403D10BF
:1074CC00F08E06F85E09F09FDA01528F48403D08B5
:1074DC00F08E06F86009F09FDA01528F48402D2F8C
:1074EC00F08E06F85E09F09FDA01528FF0D4F08E20
:1074FC0006F85C09F09FDA01528F404D9D17F08E13
:10750C0006F86009F09FDA01528F48402D0FF08E7B
:10751C0006F85E09F09FDA01528FF0D4F08E06F86F
:10752C006009F09FDA01528F404D8D09E6FA5C0933
:10753C00D4900C00D4800A00DA003C630D5FE004A8
:10754C00B8400D24A8405C14F08E0084F09F06F81F
:10755C00A307DA01528F46F40A008D0CA8405C1484
:10756C00F08E0084F09F06F8A307DA01528F46F4E0
:10757C00E803FD09E6FAA307D4900C00D4800A00B6
:04758C00DA003C6382
:107590000D3BA8400841B840A84048458DD9F08E21
:1075A00006F8A107F09FDA01528F46F40A008D1BFE
:1075B000F08E06F8A107F09FDA01528F46F4E80337
:1075C000ED12F08E06F8AD07F09FDA01528F46F407
:1075D000F4018D09F08E06F8AD07F09FDA01528FA5
:1075E00046F4A00FFD09E6FAA107D4900C00D48060
:1075F0000A00DA003C630D08E007D4500C00D440C8
:087600000A00DC45B874E11832
:0C76080006F00E00FCFFFCFEFCFDDB00A9
:10761400DA01CA1FF064D770E000F2F40426F2F530
:107624000626F6F4B020F6F5B220F086DA01EC1F57
:02763400DB0079
:10763600D740E000F3F8A7203D05D740E000F3F877
:1076460024242D02E108DB00DA000A63F0A4F0B579
:10765600E6FC000CD740E000F3F8A6205981C0856F
:10766600E6F4000C1B54F2F40EFEE6F8A608E6F962
:10767600E0000084DA00C6DFE118D740E000F7F842
:0A768600A720DA001476E118DB00FB
:10769000F069F07AD740E000F3F8A7202D11F04B05
:1076A00049802D0EF04B47F82000ED0A46F8000CFB
:1076B000ED07E6F5000C2058F04BC08C40C5FD02EC
:1076C000E108DB00F0B7F0A6D740E000F3F8A62011
:1076D0005981C085E6F4000C1B54F2F40EFE0048FC
:1076E000E6F8A608E6F9E0000084DA00C6DFDA0072
:0676F0001476E118DB0036
:1076F600D740E000F3F8A7203D02E108DB00E6FAF8
:10770600AC20E6FBE000D740E000F3F8A620598164
:10771600C085E6F4000C1B54F2F40EFEE6F8A6084B
:10772600E6F9E0000084DA00446349803D0CD75056
:10773600E000F2FA0426F2FB0626E029E008DA0168
:0A7746007E00E108DB00E118DB0023
:10775000ECFDF0D8DA00F67649802D08F04DC088AF
:10776000DA00727749802D02E0140D01E004FCFD7F
:02777000DB003C
:04777200ECFDECFE40
:10777600E00DDA000A63F024F035D740E000F3F8B4
:10778600A6205981C085E6F4000C1B54F2F60EFEC5
:10779600E6F4A608E6F5E0000046F0A4F0B5D7400A
:1077A600E000F3F8A7203D03E108EA000C79E006C3
:1077B6000D28F0465C24D7400000D494F80E0D182E
:1077C600F0420049F053DC45A9E4F04A0049F05B79
:1077D600DC45A984418E2D0BE01DF04849803D070C
:1077E600D740E000F6F9AC20E108EA000C790891F0
:1077F600F0465C24D7400000D454FA0E4059EDE020
:10780600086146F609008DD5DA01CA1FF0E4F04D8D
:1078160049802D1AD740E000F3F8BC2249812D0F8C
:10782600D740E000F3F856223D0AD740E000F3F8CF
:1078360004222D0AD740E000F3F802222D05F08E2F
:10784600DA01EC1FE1080D5FD740E000F3F8A6204F
:107856005981D750E000F7F8A620F2F4AA20084193
:10786600D740E000F6F4AA20E118D750E000F7F878
:10787600A820F78EA720E118D740E000F7F8A92046
:10788600F08EDA01EC1FD750E000F2FA0426F2FB84
:107896000626E009E008DA017E00F04D49802D3227
:1078A600E6FB7400E00AE6F87421E6F9E000DA0087
:1078B600DCDFD740E000F78E8B22E6F46400D74089
:1078C600E000F6F48E22E6F46400D740E000F6F419
:1078D6008C22E7F86400D740E000F7F86922E0154B
:1078E600D750E000F68EAA22F6F5AC22E6F40004A4
:1078F600D760E000F6F4B222F78E8A22F78E89224C
:06790600DA015C85E118C6
:06790C00FCFEFCFDDB00A7
:0E791200ECFDECFEECFFF0DB88A08890F0E8C6
:10792000F04E7C84F128D740E000F3F8A8202D1D0C
:10793000D740E000F3F8A7203D18D740E000F3F867
:1079400024243D13F04D49802D10F04D47F81000D0
:10795000ED0C46FE00049D09F05E66F5FF00F04D5B
:10796000C084004546F40001FD02E1080D47E10E28
:107970000D17C0EAD4900200A880F028002AF03940
:10798000DC43A9A2C026F4860E40418AED06DC4302
:10799000A9A2F4860A40418A9D02E1080D2F09E15F
:1079A000F05D41EA8DE6DA01CA1FF0F4F04DC08CBB
:1079B000D4B00200A8A0D740E000C2F5A620E6F4AB
:1079C000000C0B54F2F40EFE004EE6F8A608E6F9A1
:1079D000E0000084DA00C6DFD740E000F2F4AE2019
:1079E0000841D740E000F6F4AE20E118D740E000AF
:0C79F000F7F8A920F08FDA01EC1FE11875
:0A79FC000804FCFFFCFEFCFDDB00AC
:0A7A0600D740E000F78EA720DB0058
:107A1000D740E000F3F8A7202D10D750E000F2F691
:107A2000B020F2F7B220F0482046F059305726F443
:0C7A3000881338508D02DA00067ADB0063
:0A7A3C00ECFDECFEECFFF0E8F0F9C1
:107A4600E6FB000CE00AF09FF08EDA00DCDFE00DCA
:107A56000D18E7FE3C00F04E004DF05FDC45B9E442
:107A6600E7FE3C00F04E004DF05FDC45E4E400012B
:107A7600E7FE9300F04E004DF05FDC45E4E40002C3
:107A860008D146FD00018DE5E00DEA00FA7BE6F43B
:107A9600F4011BD4F2FA0EFEF04D5C14F08E008455
:107AA600F09F06F80004DA01668FE6F414001BD492
:107AB600F2FA0EFE06FA1400F04D5C14F08E008405
:107AC600F09F06F82004DA01668FE6F464001BD402
:107AD600E0F45B44F2FA0EFEF04D5C14F08E008486
:107AE600F09F06F84004DA01668FE0A40BD4F2FAA0
:107AF6000EFE06FAE2FFF04D5C14F08E0084F09F55
:107B060006F86004DA01668FE7FE6400F04E004D69
:107B1600F05FDC45E4E48004E6FAC800F04D5C144E
:107B2600F08E0084F09F06F89004DA01668FE7FE77
:107B36006E00F04E004DF05FDC45E4E4B004E7FE75
:107B46001E00F04E004DF05FDC45E4E4C004E6FAAA
:107B5600B603F04D5C14F08E0084F09F06F8D00456
:107B6600DA01668FE7FE1E00F04E004DF05FDC4541
:107B7600E4E4F004E7FE2800F04E004DF05FDC453B
:107B8600E4E40005E0541BD4F2F40EFEF1E8F04EF6
:107B9600004DF05FDC45E4E4F005F04D5C14D740A1
:107BA6000000D4A41C0FF04D5C14F08E0084F09FEE
:107BB60006F85205DA01668FF04D5C14D7400000D6
:107BC600D4A41C0FF04D5C14F08E0084F09F06F8D0
:107BD6007405DA01668FE6F414001BD4F2FA0EFE81
:107BE600F04D5C14F08E0084F09F06F89405DA01DF
:107BF600668F08D146FD1000EA80947AE6FABA0943
:107C0600F08E06F85005F09FDA01668FE6FABA099B
:107C1600F08E06F87205F09FDA01668FE00D0D5BB7
:107C2600E6FAB80BF04D5C14F08E0084F09F06F86F
:107C36003005DA01668FE6FA5203F04D5C14F08ED9
:107C46000084F09F06F84005DA01668FE6F4C80066
:107C56000BD4F2FA0EFE06FA44FDF04D5C14F08EDB
:107C66000084F09F06F81006DA01668FF05D5C2549
:107C7600E6F436002045F1E8F04E004DF05FDC45B5
:107C8600E4E42006E6F4C8001BD4F2FA0EFE06FA77
:107C96003200F04D5C14F08E0084F09F06F8400729
:107CA600DA01668FE6F4E8031BD4F2FA0EFE06FA52
:107CB600F401F04D5C14F08E0084F09F06F88907FD
:107CC600DA01668FE7FE3200F04E004DF05FDC45CC
:107CD600E4E4990708D146FD08008DA2E00D0D15D4
:107CE600E6F414001BD4F2F40EFEF1E8F04E004D5B
:107CF600F05FDC45E4E45007E7FE4000F04E004D3F
:107D0600F05FDC45E4E4280608D148D68DE9E00DAD
:107D1600E7FE64000D07F04E004DF05FDC45E4E43D
:107D2600590708D146FD30008DF6E11CDC4FE4CE44
:107D3600D805E15CDC4FE4CED905E16CDC4FE4CE3E
:107D4600DA05E6FA6419F08E06F8DB05F09FDA012B
:107D5600668FE6FA3818F08E06F8DD05F09FDA0130
:107D6600668FE6FA8813F08E06F8DF05F09FDA01D3
:107D7600668FE7FC5F00DC4FE4CEE205E7FC5A00C5
:107D8600DC4FE4CEE305E12CDC4FE4CEE505E12C47
:107D9600DC4FE4CEE605E7FC1400DC4FE4CEEC0550
:107DA600E7FC3200DC4FE4CEEE05E6FAAC0DF08ED1
:107DB60006F8E705F09FDA01668FE6FA0807F08E07
:107DC60006F8E905F09FDA01668FE7FC2300DC4F31
:107DD600E4CEEB05E1ACDC4FE4CE0306E7FC1E0087
:107DE600DC4FE4CE0406E7FC6400DC4FE4CE01067B
:107DF600E7FCC800DC4FE4CE0206E6FAD007F08EB8
:047E060006F8300644
:107E0A00F09FDA01668FE6FAF401F08E06F8320680
:107E1A00F09FDA01668FE7FC3200DC4FE4CE3007D0
:107E2A00E7FC8D00DC4FE4CE3107E7FC7300DC4F42
:107E3A00E4CE3207E7FC2800DC4FE4CE5607E12CFB
:107E4A00DC4FE4CE5807E6FA8A01F08E06F8A1075D
:107E5A00F09FDA01668FE00D0D12E6F43C001BD4A8
:107E6A00F2F40EFEE6FA5B0120A4F04D5C14F08EEB
:107E7A000084F09F06F8A307DA01668F08D148D577
:107E8A008DECE6FAF406F08E06F8AD07F09FDA01FB
:107E9A00668FE6FA3200F08E06F8B007F09FDA0134
:107EAA00668FE6FAB603F08E06F8B207F09FDA019B
:107EBA00668FE6FA5802F08E06F8BA07F09FDA01E2
:107ECA00668FE6FA7C15F08E06F8BC07F09FDA0199
:107EDA00668FE7FC3C00DC4FE4CEBE07E14CDC4F8A
:107EEA00E4CEC008E11CDC4FE4CEC208E7FC500037
:107EFA00DC4FE4CEC308E7FC6400DC4FE4CEC408E0
:107F0A00E7FC4E00DC4FE4CEC508E1ACDC4FE4CE22
:107F1A00C708E7FC9100DC4FE4CEC808E7FC9500EF
:107F2A00DC4FE4CEC908E7FC5500DC4FE4CECF08AD
:107F3A00E11CDC4FE4CED008E7FC4C00DC4FE4CE79
:107F4A000009E7FC5200DC4FE4CE0109E04AF08E5A
:107F5A0006F80209F09FDA01668FE6FA8A02F08EC5
:107F6A0006F80409F09FDA01668FE6FAC201F08E7C
:107F7A0006F80609F09FDA01668FE6FA2C01F08E00
:107F8A0006F80809F09FDA01668FE6FAF401F08E26
:107F9A0006F80A09F09FDA01668FE6FA6400F08EA5
:107FAA0006F80C09F09FDA01668FE6FAFA00F08EFD
:107FBA0006F80E09F09FDA01668FE6FAB400F08E31
:107FCA0006F81009F09FDA01668FE6FA9300F08E40
:107FDA0006F81209F09FDA01668FE05AF08E06F869
:107FEA001409F09FDA01668FE6FA5406F08E06F855
:107FFA001809F09FDA01668FE6FA6400F08E06F837
:10800A001A09F09FDA01668FE6FAA00FF08E06F8D9
:10801A001C09F09FDA01668FE6FA7017F08E06F8EF
:10802A001E09F09FDA01668FE6FA3200F08E06F832
:10803A002009F09FDA01668FE6FA1E00F08E06F834
:10804A002209F09FDA01668FE6FA3C00F08E06F804
:10805A002409F09FDA01668FE00D0D22D740000057
:10806A00F42D3C0FF1A269A7E0144C45F1A8C024F5
:10807A007C34F06E0064F07FDC47F4864009718A34
:10808A00DC47E4864009E1FED7400000F48D3C0F4E
:10809A00C086F04E0046F05FDC45E4E4800908D172
:1080AA0046FD1C008DDBE13CDC4FE4CE4E09E13C91
:1080BA00DC4FE4CE4F09E6FA1027F08E06F8500995
:1080CA00F09FDA01668FE6FA8813F08E06F85209F5
:1080DA00F09FDA01668FE6FADC05F08E06F854099D
:1080EA00F09FDA01668FE7FC2300DC4FE4CE5609E5
:1080FA00E14CDC4FE4CE5709E6FAD007F08E06F8D9
:10810A005809F09FDA01668FE15CDC4FE4CE5A0928
:10811A00E7FCFA00DC4FE4CE5B09E6FA4200F08E97
:10812A0006F85C09F09FDA01668FE6FAA800F08E7D
:10813A0006F85E09F09FDA01668FE6FA1200F08E01
:10814A0006F86009F09FDA01668FE10CDC4FE4CE95
:10815A006209E6FA3075F08E06F86409F09FDA01D2
:10816A00668FE6FAB80BF08E06F86609F09FDA0118
:10817A00668FE6FA6400F08E06F86809F09FDA0165
:10818A00668FE6FA50C3F08E06F86A09F09FDA01A4
:02819A00668FEE
:08819C00FCFFFCFEFCFDDB0012
:04401E000406050788
:080048000000FFFFAA5555AAB4
:10402800D740E000F3F84A342D05E118D740E00006
:10403800F7F84C34D750E000F6F83834F6F93A344B
:10404800D750E000F2F40426F2F50626D760E00027
:10405800F6F43C34F6F53E34F6FA4834F04BD750D3
:10406800E000F7F84D34F78E4B34E118D740E00004
:06407800F7F84A34DB00FA
:10407E00D740E000F3F84A342D1BD770E000F6F875
:10408E004034F6F94234F2F63834F2F73A34F04866
:10409E002046F0593057D750E000F6F44434F6F588
:1040AE004634E118D750E000F7F84B34F78E4A3417
:0240BE00DB0025
:1040C000D740E000F3F8562249823D20D740E00077
:1040D000F2F406223D1BD740E000F2F418223D1610
:1040E000D740E000F2F41A223D11D740E000F3F887
:1040F0002C223D0CD740E000F3F82D223D07D7409D
:10410000E000F3F858223D02E0140D01E004DB006A
:0A411000D740E000F78EC134DB0059
:10411A00DA00C040F128A9803D05D740E000F78EBB
:10412A00B934DB0049203D04D740E000F78EC134A2
:10413A00F04B47F81E002D04F04C4980EA206C42EF
:10414A00D740E000F3F8B9343D0ED750E000F6F856
:10415A00BA34F6F9BC34E118D750E000F7F8B934AC
:10416A00F7F2C134DB00D740E000C2F4B6340841AC
:10417A006847F148D740E000F3FAB73441A43D0D4F
:10418A00E118D750E000F7F8B834C2F4B734084160
:10419A006847D740E000F7F8B734D750E000F2F4A8
:1041AA00BA34F2F5BC34F0682064F0793075D7403F
:1041BA00E000C2F4B6345C24D760E000C4644E3434
:1041CA00C4745034C2F4B6345C14D740E000C4A4BA
:1041DA006E34F04C49802D02E11A0D01E10AD750E4
:1041EA00E000C2F4B634E4A49E34D750E000F2F6FC
:1041FA000426F2F70626D740E000C2F4B6345C245F
:10420A00D750E000C4647E34C474803449202D073A
:10421A00D740E000F3F8C1342D02E0140D01E004A8
:10422A00F1A8D760E000C2F4B634E4A4AE34F2F4E4
:10423A00BE34404A3D05D740E000F3FAC0340D01D0
:10424A00E10AD770E000C2F4B634E4A4A634F7F465
:10425A00B634F6F8BA34D750E000F6F9BC34F7F2BF
:02426A00C1345D
:02426C00DB0075
:10426E00ECFDECFEECFFF0E9F0FAF0D806F0FEFF04
:10427E00DA01CA1FF074F04DC086E0C40B64F2F58B
:10428E000EFED740E000D445B420B840D740E00041
:10429E00F4C5BE20DC4FB9CEF087DA01EC1FA84082
:0A42AE000802FCFFFCFEFCFDDB0033
:1042B800F04A47F86B008D02E108DB00F04AC0863F
:1042C8007C36F0480046F059DC45F4844009C08447
:0A42D800F05A69A76C456981DB000C
:1042E200F04A47F86B008D02E108DB00F04AC08615
:1042F200F0480046F059DC45F4C4800967FC0F0021
:1043020049C03D01E1FCF04B49813D02E11E0D1126
:10431200F04B49823D02E12E0D0CF04B49843D02E7
:10432200E14E0D07F04B47F808003D02E18E0D010A
:10433200E10E49E02D05F18C618E2D02E0140D0194
:02434200E00495
:02434400DB009C
:0A434600ECFDECFEECFFF0E8F0F9EE
:10435000E6FBAA01E00AF09FF08EDA00DCDFDA016A
:10436000CA1FF0D4E6FB1600E00AE6F83834E6F996
:10437000E000DA00DCDFE6FB7400E00AE6F84E3429
:10438000E6F9E000DA00DCDFF08DDA01EC1FE11C79
:06439000DC4FE4CEA401A5
:08439600FCFFFCFEFCFDDB0056
:10439E00ECFDECFEECFF88C088B088A0F0E8F0F9E8
:0443AE0006F0CCFF4A
:1043B200E6F81600008066F8FF3FF2F904FEDA0123
:1043C2002216DC4FD45E4601D4402C0040452D0D10
:1043D200E10CDC4FE4CEA301E10CDC4FE4CEA601FC
:1043E200D4602C00DC4FC46E4601DA01CA1FF0848F
:1043F200B880D740E000F3F84B34E4800800D7409F
:10440200E000F3F84A34E4800A00D740E000F3F811
:104412004C34E4800C00D750E000F2F44434F2F55E
:104422004634C4401200C4501400D740E000F2F4F5
:104432004834C4400200D750E000F2F43C34F2F5B4
:104442003E34C4400E00C4501000D750E000F78E36
:104452004B34F78E4C34DA01EC1FD4903A00D480FE
:10446200380006F85C09DA01528FC4400400D49087
:104472003A00D480380006F85E09DA01528FC4404F
:104482000600D4903A00D480380006F86009DA01B8
:10449200528FF0D4D44004003D04E6F44200C440FC
:1044A2000400D44006003D04E6F4A800C44006001F
:1044B20048D03D02E6FD1200F4800800EA205E4684
:1044C200D4502C00D440020040453D18F480300006
:1044D20049823D14D4400400F064E007D480120005
:1044E200D4901400F048F059204630578D07D4403C
:1044F2000600F064E00720863097FD21E10CDC4FD6
:10450200E4CEA301E10CDC4FE4CEA601E014884026
:10451200E0248840E6F44B008840D4504000D44068
:104522003E008850F0C4D4B03E00D4A03C00F09FBE
:10453200F08EDA00644806F00800EA00BC47DC4F5F
:10454200F48EA3012D40DC4FD4AE5601F02AE003D5
:10455200D4401200D450140020423053FD09D440FC
:104562001200D45014002042F0243053F0350D06CE
:10457200D4401200D450140020243035F082F0933D
:10458200F06DE007208630978D1EF06AE007D44078
:104592001200D450140020463057FD02E0160D01DF
:1045A200E006D4503A00D4403800DC45F484620975
:1045B2006981C0845046F1C8DC4FE4CEA701E11CFA
:1045C200DC4FE4CEA601D4401200D4501400F064B3
:1045D200DC4FC46E5601D4603C00D4703E00DC5FF8
:1045E200C46E6E01C47E7001E11CDC4FE4CEA301F7
:1045F200E0048840E0148840E6F41A008840D45071
:104602004000D4403E008850F0C4D4B03E00D4A054
:104612003C00F09FF08EDA00644806F00800E004E7
:104622008840DC4FF48EA6012D02E0140D01E00457
:104632008840E6F44B008840D4504000D4403E000D
:104642008850F0C4D4B03E00D4A03C00F09FF08E5D
:10465200DA00644806F00800EA00BC47F4800C0067
:104662002D21E10CDC4FE4CEA301E10CDC4FE4CEC2
:10467200A601E0148840E0248840E6F41A0088404D
:10468200D4504000D4403E008850F0C4D4B03E0024
:10469200D4A03C00F09FF08EDA00644806F00800D7
:1046A200EA00BC47D740E000F3F8562249823D4970
:1046B200F4800A002D46D4903A00D480380006F8DF
:1046C2005809DA01528F48402D09D4903A00D4801B
:1046D200380006F85809DA01528F0D02E6F4D007C5
:1046E200F084E009D4600E00D4701000D4403C0085
:1046F200D4503E002046305720483059FD22DA017E
:104702007E1FE10CDC4FE4CEA301E10CDC4FE4CED2
:10471200A601E0148840E0248840E6F41A008840AC
:10472200D4504000D4403E008850F0C4D4B03E0083
:10473200D4A03C00F09FF08EDA00644806F0080036
:104742000D3CD740E000F3F8562249822D36E10CA9
:10475200DC4FE4CEA301E10CDC4FE4CEA601E00481
:104762008840E0048840E6F41A008840D4504000B3
:04477200D4403E00F1
:104776008850F0C4D4B03E00D4A03C00F09FF08E28
:10478600DA00644806F00800E0048840E004884047
:10479600E6F44B008840D4504000D4403E00885098
:1047A600F0C4D4B03E00D4A03C00F09FF08EDA00F6
:1047B600644806F00800DC4FF48EA3012D2DD4903A
:1047C6003A00D480380006F85809DA01528F48407A
:1047D6002D09D4903A00D480380006F85809DA0139
:1047E600528F0D02E6F4D007F084E009DC5FD46E48
:1047F6006E01D47E7001D4403C00D4503E00204669
:10480600305720483059FD08E10CDC4FE4CEA301B7
:10481600E10CDC4FE4CEA601DA01CA1FB840D44051
:104826002C00D740E000F6F4BE34DC4FF48EA6012F
:104836002D08DC4FF48EA7012D02E0240D01E014B3
:104846000D01E108D740E000F7F8C034A880DA018E
:02485600EC1F55
:0C48580006F03A00FCFFFCFEFCFDDB005B
:10486400ECFEECFF88C088B088A0F0E8F0F906F010
:02487400FEFF45
:10487600F4A00A0047FA6B00EA90164BC0AAD4903F
:104886000800D4800600DA00B84249803D47E10AB4
:10489600F4C00A00C0C8D740E000E4A87C25E10EB9
:1048A600F04E0048F05FDC45E4E46B00E10EF48076
:1048B6000A00C086F04E0046F05FDC45B9E4F4C05D
:1048C6000A00C0C8F04E0048F05FDC45F484D6000C
:1048D6002D195C18D4500400D44002000048DC4571
:1048E600D444EA019AF40E00E024B840F0B066FB26
:1048F600FF3FF2FC04FEC0CAD4900400D48002003C
:10490600DA00F6ACE10EF4800A00C086F04E0046EE
:10491600F05FDC45E4E4D600EA00164BE11EF480C5
:104926000A00C086F04E0046F05FDC45E4E4D6009F
:10493600E11AF4C00A00C0C4D740E000E4A47C2514
:10494600F4A00C00EA20164B49A23D3FF4800E006D
:10495600C08BC0CAD4900800D4800600DA00E242B8
:1049660049803D33E024B840E10EF4800A00C08659
:10497600F04E0046F05FDC45E4E46B00E10EF480A7
:104986000A00C086F04E0046F05FDC45B9E4F4E06C
:104996000A00C0E65C16D4300400D4200200F042BF
:1049A6000046F053DC45D444EA018AF40200EA00EA
:1049B600164BF0B066FBFF3FF2FC04FEC0EAF09334
:1049C600F082DA00F6ACEA00164BF4600A0049639E
:1049D6008D0547F60C00ED02E1140D0DD4700800AC
:1049E600D4600600DC47F4864E092D04DC47F44605
:1049F6004E090D01E134D4700800D4600600DC478E
:104A0600F4864F092D04DC47F4264F090D01E132E7
:104A1600F4800C0049823D28E10EC066F04E004647
:104A2600F05FDC45E4E46B00F4E00A00C0E8F0AEB9
:104A360000A8F0BFDC4BA9AA41A49D05DC4BA98ABE
:104A46000981DC4BB98AF4800A00C086F04E004624
:104A5600F05FDC45A9A441A48D5BF4800E00C08400
:104A66005C847843B8400D25E10EF4800A00C086C8
:104A7600F04E0046F05FDC45B9E4F4E00A00C0E819
:104A8600F0AE00A8F0BFDC4BF4CA6B0041C29D0437
:104A960009C1DC4BE4CA6B00F4800A00C086F04E04
:104AA6000046F05FDC45F4A46B0041A28D31E024A2
:104AB600B840F4C00A00F1AC69A7E0144C45F1A86F
:104AC600C0C47C34F06E0064F07FDC47F4867E015F
:104AD600718ADC47E4867E01F4E00A00C0E65C16D3
:104AE600D4500400D44002000046DC45D444EA0118
:104AF60066F400107848B840F0B066FBFF3FF2FC61
:104B060004FEC0EAD4900400D4800200DA00F6ACB9
:0A4B160006F00800FCFFFCFEDB00C7
:0A4B2000F01CF02AF03B06F0FEFF47
:104B2A00E024B840E10AC02AD740E000E4AA7C2584
:104B3A00E10EF048004AF059DC45E4E46B00E10E6E
:104B4A00C026F0480046F059DC45B9E4C0265C1698
:104B5A00F0420046F053DC45D444EA019AF40A00D4
:104B6A00F0B066FBFF3FF2FC04FEC02AF093F0822D
:044B7A00DA00F6ACBB
:044B7E000802DB004E
:104B8200ECFDECFEECFF88C0F0EAF0FB8890888038
:044B920006F0FCFF2E
:104B9600F09066F9FF3FF2FA04FEF4800E00C0883A
:104BA600DA006E42C4400200F480100049813D22C2
:104BB600F4A012002D02E0840D01E004884049A013
:104BC6002D02E0240D01E0148840F4801000C0841A
:104BD6008840D4501000D4400E008850F0C4F0BF76
:104BE600F0AED4900E00D4800C00DA00644806F0D3
:104BF60008000D37F480100047F808003D02E04D2C
:104C06000D17A9802D04F480100049823D09F48017
:104C16000C0047F843003D02E04D0D01E04D0D0844
:104C2600D440020046F400028D02E01D0D01E02D85
:104C3600F04DC0848840E0248840F4801000C08491
:104C46008840D4501000D4400E008850F0C4F0BF05
:104C5600F0AED4900E00D4800C00DA00644806F062
:024C6600080044
:0C4C680006F00A00FCFFFCFEFCFDDB0077
:104C7400ECFDECFEECFF88C0F0EAF0FB8890888045
:044C840006F0FCFF3B
:104C8800F09066F9FF3FF2FA04FEE058DA006E424F
:104C9800C4400200D740E000F3F8862149813D2155
:104CA800F4A00C002D02E0840D01E004884049A026
:104CB8002D02E0240D01E0148840E6F465008840E8
:104CC800D4501000D4400E008850F0C4F0BFF0AEAD
:104CD800D4900E00D4800C00DA00644806F0080076
:104CE8000D2AA9802D06D740E000F3F886214982D5
:104CF8003D02E04D0D08D440020046F400028D024A
:104D0800E01D0D01E02DF04DC0848840E02488406E
:104D1800E6F465008840D4501000D4400E00885056
:104D2800F0C4F0BFF0AED4900E00D4800C00DA00CE
:064D3800644806F00800CB
:0C4D3E0006F00A00FCFFFCFEFCFDDB00A0
:104D4A004089CD03F04820490D02F0492048F0245B
:104D5A00E003F04B704C2D06F04BF05C26F4E803B0
:104D6A003850FD02E108DB00F04AE005F06BF07C08
:104D7A00DA01E0C8F084F095E6F6E803E007F042CD
:104D8A00F053DA01E0C820483059FD020FF40D0152
:044D9A000EF4698129
:024D9E00DB0038
:104DA000ECFDECFEECFF88C088B088A0F0E8F0F9DC
:044DB00006F0F2FF18
:104DB400D740E000F2F4DC21B840DA01CA1FF06405
:104DC400D750E000F2F41826F2F51A26C440020087
:104DD400C4500400D750E000F2F40426F2F506268D
:104DE400C4400600C4500800D4901400D4801200BB
:104DF400DC49F4885B092D04DC49F4885B090D0265
:104E0400E7F8FA00E4800A00E01DE108E4800C0001
:104E1400F086DA01EC1FD740E000F3F81E263D09C6
:104E2400E10CDC4FE4CEA201E10CDC4FE4CEA101A5
:104E34000D1CD740E000F3F8E2212D17E10CDC4F04
:104E4400E4CEA201A84046F41400FD02E11C0D01C9
:104E5400E10CDC4FE4CEA101D4600600D47008005C
:104E6400DC5FC46E4E01C47E5001DC4FF48EA101A0
:104E74002D24D740E000F3F8E2213D1FD460020066
:104E8400D4700400D4800600D4900800F048204672
:104E9400F059305726F4DC053850FD0FDC5FD46E32
:104EA4004E01D47E50012086309726F8881338901E
:104EB400ED04E11CDC4FE4CEA201DC5FD46E4E01B4
:104EC400D47E5001D4400600D45008002046305708
:104ED40026F488133850FD04E10CDC4FE4CEA10124
:104EE400F4800A00C085A86040569D05E02DE118B5
:104EF400E4800C000D1EDC4FF48EA2012D05E02D84
:104F0400E128E4800C000D15DC4FD47E4401F057F9
:104F140006F5500040569D05E02DE188E4800C0024
:104F24000D08D740E000F3F8E2213D0348703D014D
:104F3400E00DF4800C00C0848840F04DC0848840AB
:104F4400E6F468008840D4501A00D4401800885011
:104F5400F0C4D4B01800D4A01600F09FF08EDA008C
:0E4F6400644806F00800A860DC4FC46E4401EB
:0C4F720006F01400FCFFFCFEFCFDDB0060
:104F7E00ECFDECFEECFF88C088B088A0F0E8F0F9FC
:044F8E0006F0E0FF4A
:104F9200F08066F8FF3FF2F904FEDA012216DC4FD8
:104FA200F42E9E012D0EDC5FD46E4A01D47E4C019C
:104FB200D4401000D4501200204630572D02E01485
:104FC2000D01E004E4801E0049202D09DC4FD45E6F
:104FD2004201D440160040452D02E0140D01E004C8
:104FE200F0D4D740E000F3F81E263D37E10CDC4F49
:104FF200E4CE9F01E10CDC4FE4CEA001E004884046
:10500200E0048840E0D48840D4502C00D4402A00E8
:105012008850F0C4D4B02A00D4A02800F09FF08EAB
:10502200DA00644806F00800E0048840E0048840A2
:10503200E6F44A008840D4502C00D4402A0088501C
:10504200F0C4D4B02A00D4A02800F09FF08EDA0079
:10505200644806F00800EA005E51F4801E003D0B31
:10506200F04D49802D18DC4FF48E9F012D14F480F1
:105072001A0049822D10D4702600D4602400DC4727
:10508200F4864E092D04DC47F4C64E090D01E13CBD
:10509200DC4FE4CEA001DC4FF48EA0013D08DC4FD2
:1050A200F48E9F012D06F4801A0049822D02E0142D
:1050B2000D01E004F0D4E0448840F04D49802D0217
:1050C200E0240D07F4801C0049823D02E0140D012A
:1050D200E0048840E0D48840D4502C00D4402A0018
:1050E2008850F0C4D4B02A00D4A02800F09FF08EDB
:1050F200DA00644806F00800E0848840F04D4980F8
:105102002D02E0240D07F4801C0049823D02E014C8
:105112000D01E0048840E6F44A008840D4502C0097
:10512200D4402A008850F0C4D4B02A00D4A0280069
:10513200F09FF08EDA00644806F00800DC4FF4AE0F
:10514200A0012D0429A1DC4FE4AEA001F4801A00D5
:1051520049823D04E11CDC4FE4CE9F01D460100083
:10516200D4701200DC5FC46E4A01C47E4C01D4606C
:105172001600DC4FC46E4201E11CDC4FE4CE9E01FE
:0C51820006F02600FCFFFCFEFCFDDB003C
:10518E00ECFDECFEECFF88C0F0EAF0FB8890888026
:10519E00E03D0D18E0048840E0048840F04DC084E6
:1051AE008840D4500C00D4400A008850F0C4F0BFA0
:1051BE00F0AED4900A00D4800800DA00644806F0FD
:0C51CE00080008D1F04D47F80C00FDE48B
:0A51DA000806FCFFFCFEFCFDDB00F4
:1051E400E10CDC49E4C89D01E10CDC49E4C89B0105
:1051F400E10CDC49E4C89A01E006E007DC59C46824
:105204007A01C4787C01E006E007DC59C4687601C1
:10521400C4787801E0ABE00A06F89001DA00DCDF3C
:02522400DB00AD
:10522600ECFDECFEECFF88C088B088A0F0E8F0F951
:0452360006F0D6FFA9
:10523A00D740E000F3F8562249823D3ED740E000CD
:10524A00F3F8022249823D38D740E000F2F4062200
:10525A003D33D740E000F3F858223D2ED740E00016
:10526A00F2F418223D29D740E000F2F41A223D2434
:10527A00D740E000F3F82C223D1FD740E000F3F8B6
:10528A002D223D1AD740E000F2F4FC2146F4F40145
:10529A008D13D740E000F2F4FC2146F4581BED0CC4
:1052AA00D740E000F2F5A62246F5B0FFBD0546F567
:1052BA005000DD02E0140D01E004F0D4E10CDC4FF3
:1052CA00E4CE9C01DA01CA1FC4401600F04D4980A1
:1052DA002D05D740E000F3F8B8342D0BD770E00065
:1052EA00F3F8B634F7F8B734F78EB834F78EB93422
:1052FA00E00DD4801600DA01EC1FF04D49803D150F
:10530A00F09FF08EDA00E451D4503000D4402E00E1
:10531A008850F0C4D4B02E00D4A02C00F09FF08E98
:10532A00DA008E510802EA006C57DA01CA1FC4403B
:10533A001600D740E000F3F8B734F0D4D740E000C5
:10534A00F3FAB634F04D41A83D06D4801600DA01CE
:10535A00EC1FEA006C57F04DC0865C26D750E0007F
:10536A00D4464E34D4565034B840C4500200F04D9E
:10537A00C0845C14D740E000D4446E34C4401400A6
:10538A00F04DC084D740E000F4849E34E4801800D5
:10539A00F04DC084D740E000F484A634E4802200B3
:1053AA00F04DC084D740E000F484AE34E480240099
:1053BA00F04DC0865C26D750E000D4467E34D456E1
:1053CA008034C4400C00C4500E00D750E000F2F400
:1053DA000426F2F50626C4401000C4501200F04D0F
:1053EA00C08408416847D740E000F7F8B734D48052
:1053FA001600DA01EC1FD740E000F2F5FE21D4D006
:10540A001400405D3D25F48024002D22A840D4508C
:10541A00020070452D1DA840D450020026F490D0F9
:10542A003853ED16D4600C00D4700E00D44010002E
:10543A00D45012002046305726F4FA003850ED08AE
:10544A00F48018004981ED04F48022004982FD06A7
:10545A00F09FF08EDA00E451EA003453DC4FD45E58
:10546A004801405D3D0BDC4FF48E9A012D0BDC4F59
:10547A00F4AE8D01F480180041A83D04F09FF08E2F
:10548A00DA00E451D4601400DC5FC46E4801F48E83
:10549A009A014982EA800E57DC5FD44E7601D45EC7
:1054AA007801A860D4700200004610577C144AF5AF
:1054BA00F40F7C15C4400400C4500600DC5FD44ECF
:1054CA007A01D45E7C01C4400800C4500A00D4505A
:1054DA003000D4402E00DC45F48456092D08D450FF
:1054EA003000D4402E00DC45F48456090D02E7F85A
:1054FA002300E4801A00F4801A00C086E007D44032
:10550A000400D4500600DA01E0C8E6F66400E007B9
:10551A00DA01F8C8F064F075D4800400D49006006B
:10552A0000681079D4400800D4500A002046305749
:10553A00FD02E1180D01E108E4801C00F4801A0064
:10554A00C0845C14F064E007D4400400D450060020
:10555A00DA01E0C8E6F66400E007DA01F8C8F064A8
:10556A00F075D4800400D490060000681079D44005
:10557A000800D4500A0020463057FD02E1180D01F8
:10558A00E108E4801E00F4A01C00DC4FF48E9001B8
:10559A00018ADC4FE48E9001F4A01E00DC4FF48EE9
:1055AA009501018ADC5FE48E9501F48E8F012D311D
:1055BA00DC4FF48E8D01C0865C16DC4FF48E8F01B1
:1055CA0049823D02E0040D01E0140046F4841E40C5
:1055DA00E4802000F4A01C00F4802000C084F06E57
:1055EA000064F07FDC47F4868D01018ADC47E4869B
:0255FA008D0121
:1055FC00F4A01E00F4802000C084F06E0064F07FE4
:10560C00DC47F4869201018ADC47E48692010D04A2
:10561C00E11CDC4FE4CE9D01DC4FF48E9B01098133
:10562C00DC4FE48E9B0147F880008D6BD45030002A
:10563C00D4402E00DC45F48457092D08D45030009A
:10564C00D4402E00DC45F48457090D01E148E48078
:10565C002800E138E48026000D3BE0148840F480FB
:10566C00280049832D0BF480280047F808002D06EC
:10567C00DC4FF48E9D012D02E0040D10F480280007
:10568C00C086F04E0046F05FDC45F4A48D01F4803A
:10569C002A0041A88D02E0240D01E0148840F4801A
:1056AC002A00C0848840D4503600D440340088503E
:1056BC00F0C4D4B03400D4A03200F09FF08EDA00E5
:1056CC00644806F00800F48026000981E480260076
:1056DC00F480260047F80C00FDC0E10CDC4FE4CE52
:1056EC009D01E10CDC4FE4CE9B01E0ABE00AF08EB7
:1056FC0006F89001F09FDA00DCDFE11CDC4FE4CE11
:10570C009C01DC7FD46E7A01D47E7C01C46E760160
:10571C00C47E7801A860D4700200DC7FC46E7A016C
:10572C00C47E7C01F4CE8D01E4CE8C01F4C0180053
:10573C00DC6FE4CE8D01F4CE8F01E4CE8E01F4C08B
:10574C002200DC5FE4CE8F01F4AE9A0149A2EA900C
:10575C003453F18A0981DC4FE48E9A01EA00345308
:0C576C0006F03000FCFFFCFEFCFDDB0042
:10577800ECFDECFEECFF88C088B088A0F0E8F0F9FA
:0457880006F0FAFF2E
:10578C00D4900C00D4800A0006F85009DA01528F2C
:10579C00F084E009B880C4900200D4700C00D4608E
:1057AC000A00DC47F4863207C0845C34C440040031
:1057BC00DC47F4863107C08D5C3D70893D06E6F40C
:1057CC001027E005B840C4500200D740E000F3F8C1
:1057DC008A223D1FE006E007DC5FC46E6201C47ED6
:1057EC006401E0048840E0048840E6F42700884027
:1057FC00D4501200D44010008850F0C4D4B0100023
:10580C00D4A00E00F09FF08EDA00644806F0080079
:10581C000D72D740E000F2F6B222406D8D02E01D11
:10582C000D01E00DD45004004065ED02E11A0D01AC
:10583C00E10AF04D49803D2149A03D1FE006E007FB
:10584C00DC5FC46E6201C47E6401E0048840E01435
:10585C008840E6F427008840D4501200D440100051
:10586C008850F0C4D4B01000D4A00E00F09FF08E7D
:10587C00DA00644806F008000D3EDC5FD44E62018D
:10588C00D45E640170453D09D4600E00D4701000E4
:10589C00DC5FC46E6201C47E6401DC5FD46E6201A5
:1058AC00D47E6401D4400E00D450100020463057F2
:1058BC00A860D4700200204630578D1DF04D4980F1
:1058CC002D02E1180D01E128C0848840E0248840B5
:1058DC00E6F427008840D4501200D44010008850C1
:1058EC00F0C4D4B01000D4A00E00F09FF08EDA00FB
:0658FC00644806F00800FC
:0C59020006F00C00FCFFFCFEFCFDDB00CE
:10590E00ECFDECFEECFF88C088B088A0F0E8F0F962
:04591E0006F0F8FF98
:10592200D740E000F2F4DE21B840D4900E00D480DB
:105932000C0006F85209DA01528FC4400200D490DA
:105942000E00D4800C0006F85409DA01528FC440CC
:105952000400D4500E00D4400C00DC45F484000650
:105962002D2AE6FC2D00D4B00A00D4A00800F09F36
:10597200F08EDA00204BE6FC3F00D4B00A00D4A03F
:105982000800F09FF08EDA00204BE6FC4000D4B015
:105992000A00D4A00800F09FF08EDA00204BE6FC4B
:1059A2004500D4B00A00D4A00800F09FF08EDA00BF
:1059B200204BEA00685CD44002003D04E6F4881300
:1059C200C4400200D44004003D04E6F4DC05C440B7
:0E59D2000400D740E000F3FA8A2149A12D3BE2
:1059E00049A43D08A84046F4C4098D02E1180D0100
:1059F000E1280D01E188C0848840E0248840E6F475
:105A000045008840D4501400D44012008850F0C49F
:105A1000D4B01200D4A01000F09FF08EDA006448D9
:105A200006F00800E0148840E0248840E6F42D00E9
:105A30008840D4501400D44012008850F0C4D4B030
:105A40001200D4A01000F09FF08EDA00644806F037
:065A50000800EA00685C9A
:105A5600D4500E00D4400C00DC45F484C408C08544
:105A6600E0541B54F2F50EFEA86040569D02E02D50
:105A76000D14D4500E00D4400C00DC45F484C30849
:105A8600C085E0541B54F2F50EFE4056FD02E118A7
:105A96000D03DC4FF48EA501F0D4D740E000F3F8F7
:105AA6008A222D08D740E000F3F8562249823D02AB
:105AB600E0140D01E004E4800600F04D49802D500D
:105AC600DC4FF4AEA501F04D41A82D4ADC5FD4AE03
:0C5AD6006A01D4BE6C01F04A704B2D2F09
:105AE200D4801000D4901200208A309BE0148840A9
:105AF200F48008002D09D4400600F064E0072086F7
:105B02003097FD02E0240D01E0148840F04D4982F7
:105B12003D03E6F43F000D02E6F440008840D45015
:105B22001400D44012008850F0C4D4B01200D4A0A3
:0E5B32001000F09FF08EDA00644806F00800C4
:105B4000D4601000D4701200DC6FC46E6A01C47E91
:105B50006C01D44E52010841DC4FC44E5201F06D2D
:105B6000DC4FE4CEA501DC5FD44E6601D45E680153
:105B700070453D09D4601000D4701200DC5FC46E23
:105B80006601C47E6801F48006002D5ADC5FD44EA5
:105B90006601D45E6801D4801000D4901200208485
:105BA0003095D4400200F064E007208630978D489D
:105BB000E0448840DC4FD44E52012D02E0140D0128
:105BC000E0248840E6F445008840D4501400D440D6
:105BD00012008850F0C4D4B01200D4A01000F09F7E
:105BE000F08EDA00644806F00800E0148840DC4FCC
:105BF000D44E52012D02E0140D01E0248840E6F459
:105C00002D008840D4501400D44012008850F0C4B5
:105C1000D4B01200D4A01000F09FF08EDA006448D7
:105C200006F00800E006DC4FC46E5201D46010009C
:105C3000D4701200DC5FC46E6601C47E68010D1072
:105C4000F48006003D0DE006DC4FC46E5201D460C6
:105C50001000D4701200DC5FC46E6601C47E68015F
:085C6000A860DC4FC46E540182
:0C5C680006F00E00FCFFFCFEFCFDDB0063
:105C7400ECFDECFEECFF88C0F0EAF0FB8890888035
:045C840006F0FCFF2B
:105C8800D740E000F3FAC022B9A0E7F85600E48054
:105C98000200E01D49A03D2FE0048840E014884040
:105CA800E6F44D008840D4501000D4400E008850CF
:105CB800F0C4F0BFF0AED4900E00D4800C00DA002F
:105CC800644806F00800E0048840E0148840E6F4E0
:105CD80056008840D4501000D4400E008850F0C4BC
:105CE800F0BFF0AED4900E00D4800C00DA00644807
:105CF80006F008000D32A98049823D02E02D0D14FE
:105D0800A98049833D02E04D0D0FA98049843D02D9
:105D1800E08D0D0AE7F84D00E4800200A98049856E
:105D28003D02E04D0D01E08DF04DC0848840E02437
:105D38008840F4800600C0848840D4501000D440C5
:105D48000E008850F0C4F0BFF0AED4900E00D4809E
:0A5D58000C00DA00644806F00800B1
:0C5D620006F00A00FCFFFCFEFCFDDB006C
:045D6E0006F0F4FF48
:105D7200E6F45713C4400800E6F46824C4400A005D
:105D8200E10E0D0AC0E95C19D7400000D469480051
:105D9200F0400049B86409E149E48DF4E10E0D0DCB
:105DA200C0E85C18D7400000D4584800F010001832
:105DB20048592D02E1080D3309E149E48DF1D4502F
:105DC2000A00D4400800004546F4BF373D19D450BC
:105DD2000800D4400A00204546F411113D11D45068
:105DE2000A00D4400800504546F43F373D09D450DC
:105DF2000800E0341B54F2F40EFE46F4053A2D027C
:105E0200E1080D0DE10E0D08E0144C4766F40F0099
:0E5E12003D02E1080D0409E149E48DF6E118B6
:065E200006F00C00DB009F
:105E2600ECFEECFF88C0F0EAF0FBF028F039DC432A
:105E3600F482A8013D0ADA006E5D49802D02E11C5C
:105E46000D01E12CDC43E4C2A801E0148840DC43E8
:105E5600F482A80149813D02E0140D01E024884046
:105E6600E6F450008840D4500800D440060088501C
:105E7600F0C4F0BFF0AEF093F082DA00644806F0AA
:0A5E860008000802FCFFFCFEDB0030
:105E9000ECFDECFEECFF88C088B088A0F0E8F0F9DB
:045EA00006F0F4FF15
:105EA400E108E4800400E108E4800600E108E480FD
:105EB4000800E108E4800A00E00DDC4FF48EA40140
:105EC4003D04F09FF08EDA004643E0EBE00AF08EEA
:105ED40006F87E01F09FDA00DCDFDC5FD46E72012D
:105EE400D47E7401D4401000D450120020463057A0
:105EF400B840C4500200DC4FF48EA901EA20766059
:105F0400D4901600D480140006F86409DA01528F84
:105F140048402D0AD4901600D480140006F8640971
:105F2400DA01528FF0A40D02E6FA3075A8B0D4C09D
:105F34000200DC4FD49E5801D740E000F2F87421EF
:105F4400DA004A4DE4800400D4901600D480140092
:105F540006F86609DA01528F48402D0AD4901600DB
:105F6400D480140006F86609DA01528FF0A40D02F9
:105F7400E6FAB80BA8B0D4C00200DC4FD49E5A0194
:105F8400D740E000F2F87821DA004A4DE4800600B8
:105F9400D4901600D480140006F86809DA01528FF0
:105FA40048402D0AD4901600D480140006F86809DD
:105FB400DA01528FF0A40D02E6FA6400A8B0D4C04E
:105FC4000200DC4FD49E5C01D740E000F2F880214F
:105FD400DA004A4DE4800800D4901600D4801400FE
:105FE40006F86809DA01528F48402D0AD490160049
:105FF400D480140006F86809DA01528FF0A40D0267
:10600400E6FA6400A8B0D4C00200DC4FD49E5E015E
:10601400D740E000F2F87C21DA004A4DE4800A001F
:10602400D740E000F3F8562249823D23D49016006D
:10603400D480140006F86A09DA01528F48402D0A08
:10604400D4901600D480140006F86A09DA01528F3D
:10605400F0A40D02E6FA50C3A8B0D4C00200DC4F8D
:10606400D49E6001D740E000F2F88421DA004A4D62
:10607400F0D4D4601000D4701200DC5FC46E7201DE
:10608400C47E7401F4800400C0848840D740E000DA
:10609400C2F476218840E0848840E6F41B008840FE
:1060A400D4501E00D4401C008850F0C4D4B0180052
:1060B400D4A01600F09FF08EDA00824B06F00A009E
:1060C400F4800600C0848840D740E000C2F47A21FE
:1060D4008840E0048840E6F443008840D4501E0021
:1060E400D4401C008850F0C4D4B01800D4A01600CA
:1060F400F09FF08EDA00824B06F00A00F48008006C
:10610400C0848840D740E000C2F482218840E0B4D3
:106114008840E6F45B008840D4501E00D4401C0044
:106124008850F0C4D4B01800D4A01600F09FF08EAC
:10613400DA00824B06F00A00F4800A00C08488402A
:10614400D740E000C2F47E218840E0A48840E6F411
:1061540061008840D4501E00D4401C008850F0C414
:10616400D4B01800D4A01600F09FF08EDA00824B51
:1061740006F00A00F04DC0848840D4501800D44082
:1061840016008850F0C4D4B01200D4A01000F09FC0
:10619400F08EDA00744C0804D4501600D440140075
:1061A4008850F0C4D4B01000D4A00E00F09FF08E3C
:1061B400DA00A04D0802D4501600D44014008850D0
:1061C400F0C4D4B01000D4A00E00F09FF08EDA001A
:1061D4007E4F0802D4401000D450120088508840EA
:1061E400D4501A00D44018008850F0C4D4B014001D
:1061F400D4A01200F09FF08EDA009E430806D4501B
:106204001600D44014008850F0C4D4B01000D4A0B8
:106214000E00F09FF08EDA0026520802D4401000DF
:10622400D450120088508840D4501A00D44018002A
:106234008850F0C4D4B01400D4A01200F09FF08EA3
:10624400DA0078570806D4401000D4501200885061
:106254008840D4501A00D44018008850F0C4D4B0F8
:02626400140024
:10626600D4A01200F09FF08EDA000E590806D45022
:106276001600D44014008850F0C4D4B01000D4A046
:106286000E00F09FF08EDA00745C0802D4501600FF
:10629600D44014008850F0C4D4B01000D4A00E002E
:1062A600F09FF08EDA00265E0802D740E000F2F694
:1062B6007421DC4FC46E5801D740E000F2F6782115
:1062C600DC4FC46E5A01D740E000F2F68021DC4F65
:1062D600C46E5C01D740E000F2F67C21DC4FC46E50
:1062E6005E01D740E000F2F68421DC4FC46E600107
:0862F600E11CDC4FE4CEA9011C
:0C62FE0006F01200FCFFFCFEFCFDDB00C3
:020000040001F9
:10469E00ECFEECFF88C088B088A0F0E8F0F906F0D8
:0246AE00FCFF0F
:1046B000E6F45622E6F5E000B840C4500200E6F801
:1046C0005622E6F9E000DC49F48832002D09D45086
:1046D0000600D4400400DC45F4841A0049822D14FD
:1046E000E10CDC49B9C8E10CD4500200A840DC451B
:1046F000E4C43000D4500200A840DC55C4E41C00DF
:10470000C4F41E00EA001A48DC49A9883D03E11CF4
:10471000DC49B9C8D4500200A840DC45A9844982CC
:104720003D1ED4900A00D480080006F80609DA017C
:10473000528FD4700600D4600400DC47D4561400B5
:1047400040549D0DE11CD4500200A840DC45B9C482
:10475000E10CD4500200A840DC45E4C43000D45041
:104760000200A840DC45A98449813D57D4900A0045
:10477000D480080006F80409DA01528FD4700600CC
:10478000D4600400DC47D456140040548D3FD490CC
:104790000200A880DC49F48830003D0CE11CDC49B3
:1047A000E4C83000D4500200A840DC55C4E418002E
:1047B000C4F41A00D4900A00D480080006F808094E
:1047C000DA01528FF084E009D4B00200A8A0DC5BCB
:1047D000D46A1800D47A1A00F04E2046F05F3057A1
:1047E000204830598D1AE12CDC4BB9CAD450020054
:1047F000A840DC55C4E41C00C4F41E00E10CD450F5
:104800000200A840DC45E4C430000D07E10CD450A0
:0A4810000200A840DC45E4C43000BB
:0A481A0006F00A00FCFFFCFEDB00C4
:10482400ECFDECFEECFF88C0F0EAF0FB8890888099
:0448340006F0F6FF95
:10483800E6F45622E6F5E000B840C4500200E6F47B
:104848007421E6F5E000C4400400C4500600E00608
:10485800D4501400D4401200DC45C4640600E006BD
:10486800D4501400D4401200DC45C4640400E10CA8
:10487800D4501400D4401200DC45E4C41900E10C03
:10488800D4501400D4401200DC45E4C41800D4907D
:104898001000D4800E0006F8DB05DA01528FDC4FD9
:1048A800D45E140040548D08E11CD4500200A84086
:1048B800DC45E4C401000D14D4901000D4800E002F
:1048C80006F8DD05DA01528FDC4FD45E140040543F
:1048D800ED07E10CD4500200A840DC45E4C4010017
:1048E800D4501000D4400E00DC45F484B407C084D2
:1048F8007C14F0D468D3D4500200A840DC45F4847A
:1049080001002D1CF04D49822D0BD4701400D46089
:104918001200DC47D44604007841DC47C446040052
:10492800F04D49812D0BD4701400D4601200DC477F
:10493800D44606007841DC47C4460600D4901000EF
:10494800D4800E0006F8B507DA01528FC44008007B
:10495800D4901000D4800E00DC49F488B4079AF48F
:104968004400D46008002D41DC4FD45E140040564A
:024978008D3C74
:10497A0006F8DB05DA01528FF074D440080020747F
:10498A00DC4FD46E14002064D4501000D4400E00C2
:10499A00DC45F484B707C0841B64F2F50CFEF2F41C
:1049AA000EFEF6F40EFEF6F50CFE7B77F2F40EFE22
:1049BA00F07446F76400FD02E6F76400F04D4982A0
:1049CA002D08F1CED4501400D4401200DC45E4C4C2
:1049DA001800F04D49812D08F1CED4501400D4406E
:0849EA001200DC45E4C41900D1
:1049F200D4501400D4401200DC45F4841800D7507F
:104A0200E000F7F8D534F78ED634D4800A00D4907B
:104A12000C00DA018C6D49802D1DD4501000D44059
:104A22000E00DC45F484C508C085E0A40B54F2F600
:104A32000EFED4500600D4400400DC45A844404693
:104A4200CD09D4500200A840DC45A98449823D0228
:104A5200E0140D01E004F1C8D4500200A840DC4586
:104A6200E4C40300D4500200A840DC45F4840300EF
:104A72002D34D4901000D4800E0006F8E705DA0138
:104A8200528FDC4FD45E140040548D27D450100056
:104A9200D4400E00DC45F484B407C0847C44F0D4D6
:104AA20068D3F04D49822D0BD4701400D4601200EB
:104AB200DC47D44604003FF4DC47C4460400F04D12
:104AC20049812D0BD4701400D4601200DC47D44607
:104AD20006003FF4DC47C4460600D4901000D480A0
:104AE2000E0006F83209DA01528FC4400800D45091
:104AF2000200A840DC45F48403002D74D490100019
:104B0200D4800E00DC49F488B4079AF46B30D46088
:0E4B120008002D68DC4FD45E140040568D6301
:104B200006F8E705DA01528FD45008002045F064FA
:104B3000E007DC4FD48E14002085D4B01000D4A040
:104B40000E00DC4BF48A3409C0841B84F2F50CFEA1
:104B5000F2F40EFEDA01F8C8F084F095DC4BF48A2A
:104B6000B407C0847C44F0D468D3D4501000D4403F
:104B70000E00DC45F4843409C08AE00BF048F0599B
:104B8000204A305BFD02F08AF09BF018D740E0002D
:104B9000F7F2D634F04D49822D11D4B01400D4A0D0
:104BA0001200DC4BF48A1800C086E007F048F05988
:104BB00020463057FD03DC4BE42A1800F04D4981B4
:104BC0002D12D4B01400D4A01200DC4BF48A1900CA
:104BD000C086E007F048F05920463057FD04F068E1
:064BE000DC4BE4CA1900E1
:104BE600D4B00200A8A0DC4BD47A3C0006F7C8007B
:104BF600D4D01000D4C00E00DC4DF48CD4059AF449
:104C06003F10DC4BA98A49823D3BD4900600D480F4
:104C16000400DC49F488020049813D32DC49F4880D
:104C2600060049813D2DDC49F4880A0049813D286A
:104C3600DC49D448080046F43C00CD22DC49A848AB
:104C460046F41400AD1DDC4DF48CEB05C086DC4942
:104C5600D44804004046AD14DC4BF48A02002D0211
:104C6600F0670D0706FCE905F09DF08CDA01528F1E
:104C7600F064DC4FD44E14004046FD02E0140D01F2
:104C8600E004F1A849A03D0FE10CD4500200A84071
:104C9600DC45E4C40200E10CD4500200A840DC4527
:104CA600E4C431000D3BD4900200A880DC49F488AE
:104CB60031003D10E11CDC49E4C83100D4600A0033
:104CC600D4700C00D4500200A840DC55C464200007
:104CD600C4742200D4501000D4400E00DC45F48485
:104CE6000306C085E6F464001B54F2FB0CFEF2FAE0
:104CF6000EFED4300200A820DC53D4822000D492C9
:104D06002200D4600A00D4700C0020683079206A32
:104D1600307B8D04E11CDC43E4C20200D450020067
:104D2600A840DC45F48402002D0BD4701400D46036
:104D36001200DC47D44604007842DC47C44604002F
:104D4600D4500200A840DC45A98449813D19D4709D
:104D56000600D4600400DC47F486020049813D1059
:104D6600DC47A84646F48403CD0BD4701400D46007
:104D76001200DC47D44604007844DC47C4460400ED
:104D8600D4500600D4400400DC45F4840600498172
:104D96003D27D4901000D4800E0006F80E09DA01E3
:104DA600528FD4700600D4600400DC47D456040049
:104DB6004054FD16D4701400D4601200DC47D4466B
:104DC60004004FF4DC47C4460400D4701400D460D9
:104DD6001200DC47D44606004FF4DC47C446060002
:104DE600D4501400D44012008850F0C4F0BFF0AE86
:0E4DF600D4800C00D4900E00DA01946B0802F9
:0C4E040006F01000FCFFFCFEFCFDDB00D3
:020000040000FA
:050039004C52463100AD
:020000040001F9
:10006A00E6FBE000E00AE6F85833E6F9E000DA00D9
:04007A00DCDFDB00EC
:10007E00F04849869D65E0174C78F04949803D0C63
:10008E00F0579150D740E000F2F4A0336045D740CE
:10009E00E000F6F4A033DB00F048C085E0C40B545A
:1000AE00F2F60EFEE6F45833E6F5E0000046F024D4
:1000BE00F035D740E000F2F4A03360472D05DC4365
:1000CE00A9A2F04941A82D33D740E000F2F4A233A3
:1000DE0060473D05DC53C4A20400C4B20600DC43F5
:1000EE00D452020046F5FFFF9D040851DC43C45272
:1000FE000200DC53C4A20800C4B20A00F069DC435B
:10010E00B9C2D740E000F2F4A2337047D740E00006
:10011E00F6F4A233E118D750E000F7F8A433F3F861
:10012E00AA332D05E118D740E000F7F8A533D740E4
:10013E00E000F2F4A0337047D740E000F6F4A033AD
:02014E00DB00D4
:10015000F06BF07CF05AD740E000F3F81E262D1427
:10016000F0A6F0B7A9802D0CDC49F4880200498183
:100170002D0749802D02C0840D01E024F0940D016B
:0A018000E009C0A8DA017E00DB00F0
:0C018A00ECFEECFFF0E8F0F906F0FCFFE2
:10019600E6F47421E6F5E000B840C4500200E0142D
:1001A6008840F0BEF0CFE01AE6F87421E6F9E000E8
:1001B600DA0150010802E0148840F0BEF0CFE02AD0
:1001C600D4900400D480020006F80800DA01500139
:1001D6000802E0148840F0BEF0CFE03AD490040064
:1001E600D480020006F80C00DA0150010802E0147F
:1001F6008840F0BEF0CFE04AD4900400D4800200DC
:1002060006F81000DA0150010802DA000A63DC453C
:10021600F484D4056981C0843D02E0140D01E00434
:10022600C0848840F0BEF0CFE05AD4900400D48059
:0A02360002000884DA0150010802FA
:080240000804FCFFFCFEDB00DA
:10024800F04849802D03E6F480030D02E6F420030C
:02025800DB00C9
:0E025A00ECFDECFEECFFF0E8F0F906F0FCFF26
:10026800E04CE6FA3900E6FB0000F09FF08EDA0079
:10027800D03F48403D3EDC4FF48E040049813D3973
:10028800DC4FF48E050049863D34DC4FF48E0600C1
:100298003D30DC4FF48E07003D2CDC4FF48E5F00C0
:1002A80047F8A5003D26F08E06F80C00F09FDA010D
:1002B800528F66F4C0FF3D1DF08E06F80E00F09FC9
:1002C800DA01528F48403D15E6FB5C00F0AFF09E26
:1002D800E6F8FFFFDA016890F0D4F08E06F85C00CB
:1002E800F09FDA01528F404D3D04DC4FF48E5E00E2
:0A02F8002D02E1080D43E00D0D3268
:10030200F04DC085E0C41B54F2F60EFEF04E0046DE
:10031200F05F06F41000B840C4500200D45002004E
:10032200A840DC45F48401003D1AF08E06F80C006A
:10033200F09FDA01528FF074E0154C5DF045604792
:100342002D10D4500200A840DC45A9842D08D49079
:100352000200A8800882DA01528F48403D02E1087B
:020362000D107C
